:100688000E0A1F1F1B1B0E000E021F1F1B1B0E0036
:100698001F1B1B1B1B1F1B1F000103161C08000030
:1005DE0075B0FF7F141206DB75B08375B0037F0A0A
:1005EE001206DB75B08375B0037F011206DB75B0A2
:1005FE008375B0037F011206DB75B08275B0027F82
:04060E00010206DB04
:10043D001205DE7F2812063B7F0C12063B7F06124B
:10044D00063B7F4012063BE4F52390068812061208
:10045D000523E523C3940840F1E4F523900690129B
:10046D0006120523E523C3940840F1E4F523E523A3
:10047D0090069893FF1206160523E523C3940840B2
:10048D00EDE4F523E5239006A093FF120616052350
:0C049D00E523C3940840ED7F8002063B7D
:10063B00EF7804A2E713D8FBFE540F4480F5B0EE1D
:10064B00540FF5B0EF540FFE4480F5B08EB07FC859
:08065B001206F37FC80206F34A
:04061200E52393FF4A
:10061600EFC4540FFE44A0F5B0EE4420F5B0EF54FD
:100626000FFE44A0F5B0EE4420F5B07FC81206F3E5
:050636007FC80206F37D
:100663008B278A288929AB27AA28A9291205636021
:10067300130529E5297002052814F9120563FF12F1
:05068300061680E222D2
:10029D00456E746572206C6F636B20636F646500CF
:1002AD00313233343500204C6F636B206973006439
:1002BD00656163746976617465642100507265735C
:1002CD007320272327206B657920746F006C6F6373
:1002DD006B20616761696E21004C6F636B206973E0
:1002ED002061637469766521002057726F6E6720F7
:1002FD00436F646521005472696573206C65667483
:10030D00203D2000424C4F434B454400554E424C3E
:10031D004F434B45440057524F4E4720434F4445A2
:01032D0000CF
:0506EB00C1000117032E
:10000300E4F52212043D1206FA7F0112063B7BFF40
:100013007A02799D1206637FC012063BE4FF120643
:10002300167F3A1206167F051203BA8F217527FF32
:100033007528027529AD752A057B007A00790812A7
:1000430005A950051201D980C0E521B401BB3000D8
:100053000B75270075280075291280097527FF7510
:100063002805752902752A057B007A00790812058F
:10007300A99202300274751703C2937F0112063BE3
:100083007F031206167BFF7A0279B31206637FC0E1
:1000930012063B7BFF7A0279BC1206637FFA1206D3
:1000A300DB7FFA1206DB7FFA1206DB7FFA1206DB2E
:1000B3007F0112063B7BFF7A0279C91206637FC078
:1000C30012063B7BFF7A0279DA120663120507BF39
:1000D3000CFAD2937F0112063B7F031206167BFFB5
:1000E3007A0279E612066302000C15177F011206E5
:1000F3003B7F021206167BFF7A0279F61206637FB4
:10010300C012063B7BFF7A037903120663E51724CB
:1001130030FF1206167FFA1206DB7FFA1206DB7F28
:10012300FA1206DB7FFA1206DBE517600302000C06
:100133007F0112063B7F021206167BFF7A037911B9
:100143001206637F021206167FC012063BE4FF12FB
:1001530006167F3A1206167F0A1203BA8F217527F5
:10016300FF7528047529F8752A0A7B007A00790837
:100173001205A950327517037F0112063B7F021245
:1001830006167BFF7A0379191206637F021206169D
:100193007FFA1206DB7FFA1206DB7FFA1206DB7F99
:1001A300FA1206DB02000C7F0112063B7F021206E5
:1001B300167BFF7A0379231206637F021206167FEA
:1001C300FA1206DB7FFA1206DB7FFA1206DB7FFAEE
:0601D3001206DB020133FD
:0706F300AE071FEE70FA22B2
:1006DB00AD07AF051DEF60077F951206F380F32280
:0206F000C10146
:0406FA0053900F22E8
:10050700E4F529752801F527AF277480A807088027
:1005170002C313D8FCFEF452902090098528293095
:1005270090FDAF292220910BE52804F5293091FD94
:10053700AF292220920CE5282402F5293092FDAF3D
:10054700292274032528F528EE42907F0A1206DB3C
:0B0557000527E527C3940440AF7F0098
:010562002276
:1006A800EFC3940A5005EF2430FF22BF0A037F7876
:1006B80022BF0B037F3022BF0C037F65227F782285
:1004A900456E746572204D6173746572636F64651E
:1004B90000456E746572206E657720636F64650010
:1004C9006C6F636B20636F6465207361766564216B
:1004D9000057524F4E4720434F4445210020436F58
:1004E900646520746F6F204C6F6E672E2E2E00315D
:0E04F90032333435363738393035343332311A
:0605A9008B248A2589263F
:1005AF00E4FFEFC3952A5025AB27AA28A9298F82EC
:1005BF0075830012057CFEAB24AA25A9268F8275B0
:0E05CF00830012057C6E6002C3220F80D5D31C
:0105DD0022FB
:1001D9007F0112063B7F8012063B7BFF7A0479A9D7
:1001E9001206637FC012063BE4FF1206167F3A121D
:1001F90006167F0A1203BA8F23E5236401600302FE
:1002090002937527FF7528047529F8752A0AFB7A60
:100219000079081205A950507F0112063B7BFF7A2D
:100229000479BA1206637FC012063BE4FF12061670
:100239007F3A1206167F051203BA8F23E52364015C
:10024900701A7F0112063B7F031206167BFF7A04A0
:1002590079C9120663D2001206C8801AE523B402CE
:100269000280B5E5236403227F0112063B7BFF7AF6
:100279000479DA1206637FFA1206DB7FFA1206DBCB
:100289007FFA1206DB7FFA0206DBE52364027003BC
:030299000201D986
:01029C00223F
:0203BA008F248E
:1003BC00E4F5251205078F26EF60F8AF261206A884
:1003CC008F2674082525F8A626E52664787020E586
:1003DC002570037F03221525E52524C2FF12063B59
:1003EC007F20120616E52524C2FF12063B80C4E5C9
:1003FC0026B465037F01220525E525D39524402AE3
:10040C007F0112063B7F021206167BFF7A0479E607
:10041C001206637FFA1206DB7FFA1206DB7FFA12F2
:10042C0006DB7FFA1206DB7F0222AF26120616804D
:01043C00823D
:1006C800E4FF74082FF8E6FE74122FF8A6060FBF91
:0206D80005F02B
:0106DA0022FD
:0300000002032ECA
:0C032E00787FE4F6D8FD75812A02037583
:10056300BB010689828A83E0225002E722BBFE0296
:09057300E32289828A83E49322C9
:10057C00BB010CE58229F582E5833AF583E0225034
:10058C0006E92582F8E622BBFE06E92582F8E2227E
:0D059C00E58229F582E5833AF583E4932298
:10033A00020003E493A3F8E493A34003F68001F2D6
:10034A0008DFF48029E493A3F85407240CC8C333C4
:10035A00C4540F4420C8834004F456800146F6DF93
:10036A00E4800B01020408102040809006EBE47E32
:10037A00019360BCA3FF543F30E509541FFEE49388
:10038A00A360010ECF54C025E060A840B8E493A34F
:10039A00FAE493A3F8E493A3C8C582C8CAC583CA7A
:1003AA00F0A3C8C582C8CAC583CADFE9DEE780BE32
:0106F2000007
:00000001FF
